:020000040800F2
:1000000008070020F9430008D9420008DB42000835
:10001000DD420008DF420008E14200080000000065
:10002000000000000000000000000000E3420008A3
:10003000E542000800000000E742000829330008FC
:10004000394400083D44000841440008F5420008D6
:10005000494400084D440008514400085544000834
:10006000594400085D4400086144000865440008E4
:10007000694400086D440008714400087544000894
:10008000794400087D440008814400088544000844
:10009000254300088D440008914400089544000859
:1000A000994400089D440008A1440008A5440008A4
:1000B000EB420008AD440008B1440008B544000814
:1000C000B9440008BD440008C1440008E9420008E2
:1000D000C9440008FB420008D1440008D544000888
:1000E000D9440008DD440008294300082DE9F04FF9
:1000F00080460FF21860A5B017461D46D0E90023D0
:10010000CDE91223002004910D900DF1500A6FF0FB
:10011000004900E0E7190020ADF8020012AB4FF0F3
:10012000FF3239460DF1020001F087F80446012C38
:1001300004DA3878441EA441E043C40FBDF802003D
:1001400025280CBFA4F1010BA346BBF1010F0EDB68
:100150003E4616F8011B0498C0470490002800F0A2
:10016000CF820D98401C0D90BBF1010BF1D1BDF871
:100170000200252807D100200790089009900A90D6
:100180000B900C9005E00028C4D10D98BAE240F025
:10019000010017F8011F2029F9D023290DD02B29A0
:1001A00004D02D2906D030290AD00CE040F00200FE
:1001B00080B2EEE740F00400FAE740F00800F7E70D
:1001C00040F01000F4E72A290ED12968296051F87F
:1001D000042B29600F92002A04D5514240F00400FC
:1001E0000F9180B27F1C11E000210F9109E00F995F
:1001F000494505D001EB810302EB430130390F91F2
:100200007F1C3A78A2F130010A29F0D339782E29DF
:1002100003D04FF0FF310E911DE017F8011F2A297E
:1002200007D1296829607F1C51F8042B29600E92A0
:1002300011E000210E9109E00E99494505D001EB2E
:10024000810302EB430130390E917F1C3A78A2F111
:1002500030010A29F0D3ADF840000FF2B8403978E8
:1002600001F00CF808B117F8010B8DF842009DF869
:100270004200682802BF39786829622005D06C28BE
:1002800004BF38786C2803D171208DF842007F1CA0
:1002900014A8069017F8014BB4F125002AD01C3899
:1002A00000F0CC80001F022840F2C880133800F014
:1002B000EE80093800F0C280801E00F04F81401EA1
:1002C00000F02481401E022840F2B880001F00F098
:1002D0001D81401F00F08380401E00F0D880401E2A
:1002E0002DD0C01E0CD0801E00F0D180C01E00F0AA
:1002F000CE8056E10120079025208DF850005BE16B
:100300009DF842006C282868286014D050F8046BCF
:10031000286005960E9C002C04D5304600F0BAFFEC
:10032000044606E022460021304600F0CFFF00B12F
:10033000841B089440E150F8042B28602AE13C24F7
:100340002968296051F8040B29600021CDE90201D8
:1003500014A80590DDE90201069E11B908B90E9AAC
:10036000B2B10206120FA0EB02123032631ED2B2FB
:100370001C463A2AA8BF273200099A5540EA017064
:10038000090908BF002803D0059AA3199A42E8D3A7
:10039000A0190590C4F13C010E980891814209DA38
:1003A000401A0A904FF6EF71BDF840000840ADF8D2
:1003B000400001E1002840F1FF809DF8400000F07E
:1003C0001400102840F0F8800F98079A801A0A9AB3
:1003D000801A401A0128C0F2EF800A90ECE09DF8E4
:1003E000420062281AD0682806D06A280CD06C28EF
:1003F0001CD0712808D019E02868286050F8041B28
:1004000028600D980880D7E02868286050F8042BF1
:1004100028600D98C117C2E90001CDE02868286066
:1004200050F8041B28600D980870C5E02868286003
:1004300050F8041B28600D980860BDE02868C01DB6
:1004400020F007022A60D2E9000108322A60CDE9D3
:100450000201002903D5012007902D200CE0BDF8F2
:100460004000810703D5012007902B2004E0C0073E
:1004700004D50120079020208DF85000079914A87A
:1004800008180590214602A800F08CFB94E09DF826
:1004900042206C2A0DD0712A18BF6A2A09D1286817
:1004A000C01D20F007032B60D3E9000108332B6047
:1004B00005E02968296051F8040B29600021CDE985
:1004C0000201682A08BF80B207D0622A08BFC0B202
:1004D00003D0742A18BF7A2A02D10021CDE9020183
:1004E0009DF84000000730D5DDE90201002908BF72
:1004F00000282AD044F02000782826D130208DF81A
:1005000050008AF80140022007901EE029469DF81D
:10051000420000F003F9CDE90201002904DA07984E
:10052000411C07912D210EE0BDF84000810704D544
:100530000798411C07912B2105E0C00705D50798B6
:10054000411C0791202100F80A10079914A80818E7
:100550000590214602A800F0A1FA2DE09DF8420086
:100560006C2809D0012007902868286050F8041BE7
:1005700028608DF850101FE001AA2868286050F804
:10058000041B2860ADF804100020ADF806004FF001
:10059000FF300E9002A9404600F0F7F800280BD576
:1005A000AEE00120079025208DF8500024B1079877
:1005B000411C079100F80A400F980799401A0A99C0
:1005C000401A0899401A0B99401A0999401A0C9937
:1005D000441A9DF84000400710D420208DF80000F8
:1005E000002609E0012300AA02A9404600F001FE0E
:1005F000002840F08580761CA642F3DB079E0DF1B3
:10060000500B0AE01BF8011B0498C0470490002817
:1006100076D00D98401C0D90761E002EF2D1302021
:100620008DF800004FF0000B0A9E09E0012300AA9C
:1006300002A9404600F0DDFD002861D10BF1010B5D
:10064000B345F3DB089EDDF814B00AE01BF8011B8C
:100650000498C0470490002852D00D98401C0D907B
:10066000761E002EF2D130208DF800004FF0000BE6
:100670000B9E09E0012300AA02A9404600F0B9FD43
:1006800000283DD10BF1010BB345F3DB0598089928
:10069000099E01EB000B09E01BF8011B0498C04701
:1006A000049068B30D98401C0D90761E002EF3D177
:1006B00030208DF800004FF0000B0C9E08E0012365
:1006C00000AA02A9404600F094FDC8B90BF1010B45
:1006D000B345F4DB9DF8400040077FF51CAD2020BA
:1006E0008DF80000002600E0761CA642BFF613AD90
:1006F000012300AA02A9404600F07BFD0028F3D0A8
:100700004FF0FF3025B0BDE8F08F00000000000082
:1007100000000000686A6C747A4C0000622826D0E1
:1007200068281DD06A2808D06C2827D0712804D0EA
:10073000742823D07A280CD020E00868C01D20F04F
:1007400007000860D0E90023083008601946104609
:1007500070470A680A6052F8040B0A60002170476B
:100760000A680A6052F8040B0A6000B20BE00A68DB
:100770000A6052F8040B0A6040B204E00A680A609A
:1007800052F8040B0A60C11770472DE9F44F0D466B
:1007900094B0D5F830B08046BBF1000F48BF6FF081
:1007A000004B00F0BFFD696B401801900FF6702000
:1007B000D0E90023CDE9022395F83800400702D4A0
:1007C0000198412806D240200DF1100A01904FF007
:1007D000000909E000F0ACFD5FEA000AF7D14FF034
:1007E000FF3058E1ABEB040BBBF1010FC0F2CD8041
:1007F0001498018802AA0DF1010000F0F1FD0446F1
:10080000002800F1D5801498008810B9641E00F10A
:10081000CF80A345C0F2B98068690199221891423E
:1008200080F0A180C5F834904042296A401AA96935
:10083000401A696A401AE969401AA96AA0EB0109DD
:1008400095F83800400710D420208DF800000026CD
:1008500009E0012300AA2946404600F0CAFC00280E
:1008600040F0A680761C4E45F3DB6E6957460BE0E0
:1008700017F8011BA868C047A860002800F09880FE
:10088000E86A401CE862761E002EF1D130208DF817
:10089000000000272E6A09E0012300AA29464046ED
:1008A00000F0A7FC002840F083807F1CB742F3DBF8
:1008B000AE69EF680AE017F8011BA868C047A86096
:1008C000002875D0E86A401CE862761E002EF2D13E
:1008D00030208DF8000000276E6A08E0012300AA8E
:1008E0002946404600F085FC002861D17F1CB742B4
:1008F000F4DBE868A969EE690F180AE017F8011B34
:10090000A868C047A860002852D0E86A401CE86286
:10091000761E002EF2D130208DF800000027AE6A3E
:1009200008E0012300AA2946404600F062FC0028A6
:100930003ED17F1CB742F4DB95F8380040070ED556
:1009400020208DF80000002607E0012300AA294698
:10095000404600F04EFC58BB761C4E45F5DB4FF090
:100960000009C5F81490224668690DF10101504450
:1009700000F044FD6869201868611498801C149088
:10098000801E008800287FF42DAF686B6969401ACB
:10099000296A401AA969401A696A401AE969401A25
:1009A000A96A471A95F83800400710D400240CE0D3
:1009B0004FF0FF3968E0A8682021C047A8600028F0
:1009C000F6D0E86A401CE862641CBC42F3DB6B6949
:1009D00052462946404600F00CFC0028E8D12C6A1B
:1009E000002609E0A8683021C047A8600028DFD0B1
:1009F000E86A401CE862761CA642F3DBAB69EA6851
:100A00002946404600F0F5FB0028D1D16C6A00264B
:100A100009E0A8683021C047A8600028C8D0E86A6B
:100A2000401CE862761CA642F3DBE868A969EB6922
:100A30000A182946404600F0DCFB0028B8D1AC6A11
:100A4000002609E0A8683021C047A8600028AFD080
:100A5000E86A401CE862761CA642F3DB95F8380091
:100A600040070DD5002409E0A8682021C047A860F0
:100A700000289DD0E86A401CE862641CBC42F3DB9D
:100A8000C5F81490C5F8349004A882451CBF5046A0
:100A900000F0F0FC484615B0BDE8F08F2DE9FA4EA5
:100AA00005460A462F696F2A08BF082405D041F081
:100AB0002000782814BF0A241024D5E900013C2620
:100AC00081468A46642A18BF692A05D1002903DABB
:100AD000D9F100096AEB4A0ABAF1000F08BFB9F16F
:100AE000000F0CD1286B50B9082C36D195F838007E
:100AF000000732D530203B2687F83B002DE0E31776
:100B000048465146224600F0F5FCA4FB0023A9EB21
:100B100002023032A6F1010BD2B25E463A2A03DB62
:100B20009DF80030513B9A180BF8072081465FEA88
:100B3000010A08BFB9F1000F03D0E868F119884233
:100B4000DDD3082C09D195F83800000705D5F05DF4
:100B5000302802D0761E3020F055C6F13C00A86146
:100B6000F119E960296B884208DA081A28624FF601
:100B7000EF71288F08402887BDE8F38E00290ED535
:100B800095F8381001F01401102908D1696B6A69D1
:100B9000891A2A6A891A081A0128A8BF2862BDE89A
:100BA000F38E00002DE9F24F04468EB0D4E9000127
:100BB000CDE9020104AF9DF8380040F0200BBBF1F5
:100BC000610F0AD0206B002848BF062004D408BF5C
:100BD000BBF1670F01D1012020636168C1F30A50A6
:100BE00040F2FF7290421CD1080304BF2068002825
:100BF00009D10320A0619DF8380061381A2836D346
:100C00000FF2306108E00320A0619DF838006138E0
:100C10001A2829D30FF21461E068032200F0EEFBDA
:100C2000BEE1012816DA204600F0DBFC012811DBCA
:100C300000250020BBF1610F20D1E168302201F8CE
:100C4000012B4A1CE2609DF83820612A0CBF7822F3
:100C500058220FE0626840F2FE3161F31E52451ADD
:100C600062604FF0FF30E5E70FF2BC51D4E70FF2BE
:100C7000C051D1E70A706169891C616110B9002611
:100C8000002584E1BBF1610F40F09780206B0028C4
:100C90004CBF2126461CDDE90201D4E900AB00224D
:100CA000002336B200F0BEFC06F101083ABF8BF01B
:100CB0000040CDE902A0CDE902AB2D1F8DF8102038
:100CC0000DF1110700E0C71DB8F1010F33DBDDE9BD
:100CD00002010022002300F0BDFC2CD21C2102A83E
:100CE00000F0D0FCDDE9020100F052FDA8F1070898
:100CF0008146B8F1010F09DB00F076FD02460B4694
:100D0000DDE9020100F088FDCDE90201F81D0721AF
:100D100005E009F00F0200F8012D4FEA2919B9F199
:100D2000010F01DB491EF4D5491E5CBF002200F80B
:100D3000012DF9D5C7E70DF11100391A0DF1110791
:100D4000B142B8BF0E4636B230002FD4884206DA20
:100D500004A9411849780829A8BF0F2100DA002109
:100D600004AA821800E0761E12F80139401E8B4258
:100D7000F9D00F2904D104A941184A78521C4A70AD
:100D8000002802D504AF761C2D1D36B2701E0DD47E
:100D9000C1190A783032D2B23A2A03DB9DF83830D2
:100DA0003A3B9A1801F80129401EF2D5206B002821
:100DB00040F1ED80701E2063E9E0DDE902010022D0
:100DC000002300F02FFC3CBF81F00041CDE902017F
:100DD0002DB247F2975068434B49DFF8309190FBB2
:100DE000F1F52DB2C5F1070A9046BAF1010F1CDBEF
:100DF000DDE902675FEACA7007D542464B463046D6
:100E0000394600F0C9FD06460F464FEA6A0A4046D9
:100E1000494642464B4600F0BFFD80468946BAF13E
:100E2000000FE7D1CDE9026724E0CAF1000A0026ED
:100E3000374F14E05FEACA7007D542464B4630464A
:100E4000394600F0A9FD06460F464FEA6A0A4046B9
:100E5000494642464B4600F09FFD80468946BAF11E
:100E6000000FE7D1DDE9020132463B4600F066FEA5
:100E7000CDE90201BBF1660F0CBF05F10A000620A7
:100E8000216B4618142EA8BF132630208DF81000B1
:100E90000DF11107DFF87C90012E3DDBDDE9020149
:100EA00000F08CFC07F1080104220A23B0FBF3F3E5
:100EB00003EB8307A0EB4700303001F8010D0A2057
:100EC000B3FBF0F000EB8007A3EB4703303301F8EE
:100ED000013D521EE9D1083E01F10807012EDBDB7E
:100EE000DDE9020100F06AFC00F088FC02460B46D6
:100EF000DDE9020100F090FC00224B4600F04CFDC1
:100F0000CDE90201CAE700BFA0860100000024402D
:100F10000000F03F84D797410DF11100381A0DF110
:100F2000110702E0401E6D1E7F1C39783029F9D070
:100F3000BBF1660F02D12DB2691C04E0BBF1650F55
:100F40000CBF01210021226B8E1836B2B042B8BF0F
:100F5000064636B231001AD4814204DAC85D35281B
:100F6000A8BF392000DA3020CA19521E00E0761ED0
:100F700012F80139491E8342F9D0392802D1C85DDF
:100F8000401CC855002902D57F1E761C6D1C2DB251
:100F90009DF83810009533B23A46204600F003F829
:100FA0000FB0BDE8F08F2DE9F04786B006468A46BF
:100FB00090461D4600F003FF406A376B90F80090A2
:100FC000012D02DA01250FF270284AF02000BDF948
:100FD0003840662808BF641C12D0672876D114F107
:100FE000040F79DBBC4277DA96F83800641C0007FE
:100FF00002D4BD42B8BF2F4624B23F1B48BF0027D2
:10100000F068B16924B2012C21DA30234A1C0B5458
:10101000012F03DA96F83810090702D502F800907C
:10102000521CB261E742B8BF7C4224B26142E71968
:101030007162AF42B8BF3D462DB2F5612A46B36931
:101040004146181800F0DAF9781BB062BAE00818C7
:10105000A54216DA2A46414600F0D0F9B16969186E
:10106000B161601B7062012F03DA96F83800000747
:1010700005D5F06801F80090F069401CF061B76296
:10108000A0E02246414600F0B9F9B06920182D1BB6
:10109000012F03DA96F83810090703D5F16800F834
:1010A0000190401C2DB2B061AF42B8BF3D46F06820
:1010B000B3692DB22A4604EB0801181800F09EF916
:1010C000B0692818B061781B70627BE0BAF1610FDB
:1010D00014D14FF0700A16E0BD4204DA96F83810C9
:1010E000090758BF2F467F1E48BF0027BAF1670F78
:1010F00014BF4FF0450A4FF0650A04E0BAF1410F02
:1011000008BF4FF0500AB169F06818F8013B0B5462
:101110004A1C012F05DA96F83810090758BFB2614A
:1011200015D502F80090531CB361012F0FDB6D1E23
:101130002DB2AF42B8BF3D462DB22A4641461818DF
:1011400000F05CF9B0692818B061781B7062F06833
:10115000B16901EB0008200008F801AB03D42B2093
:1011600008F8010B03E02D2108F8011B644200255B
:1011700002AF08E00A2200A800F03AFE019807F842
:10118000010B6D1C009C21B20129F3DA022D06DA55
:101190004AF02000652804BF302008F8010B4DB943
:1011A000302008F8010B07E06D1E02A8285C3030E3
:1011B00008F8010B012DF7DAF068B1690818A8EBFF
:1011C0000000F06196F8380000F0140010280DD1EE
:1011D0007069B1690818716A0818F1690818B16A6C
:1011E0000818716B8842BCBF081A306206B0BDE8AF
:1011F000F087F8B504460D4616461F46002004E069
:10120000E86A401CE8627F1E002047B116F8011B07
:10121000A868A047A8600028F2D14FF0FF30F2BDC7
:1012200000000000000000006E616E004E414E00A4
:10123000696E6600494E46003000F8B504460D461A
:1012400016461F4600F0DCFD3B4632462946204646
:1012500001B0BDE8F04000F0EABD50F8041B61B1F8
:1012600050F8042BD30744BFA9F101039A180023B7
:1012700042F8043B091FFAD1EFE770470278C9B280
:101280008A421AB11CBF10F8012FF9E718BF0020DD
:101290007047000000F10103810704D010F8011B22
:1012A00089B18107FAD10268B2F10131914311F09D
:1012B000803F04BF50F8042FF6E710F8011B11B16E
:1012C00010F8011BFBE7C01A70470000C9B2830782
:1012D00006D0521E22D310F8013B9942F7D11FE0ED
:1012E000083A13D302F1040241EA012141EA014123
:1012F00050F8043B121F21BF4B40A3F1013C2CEAE4
:10130000030C1CF0803FF3D0C9B2001F083210F864
:10131000013B521E28BF91EA030FF8D818BF0120E5
:10132000401E704780B500F06BFD012002BD00003B
:1013300070B5054605F10F00C408E400C046C0467C
:10134000A54232D2082C04D2082402E0083000F072
:1013500091F82248026811000CD1011D0A6802B3FD
:101360001368A34238BF111DF8D310E01D68A542D1
:101370000DD2191D0B68002BF8D11268011D00E079
:10138000191D0B6893420CD01D68A542F8D361B1BA
:101390000D682A68A2F10803A3420AD26A680A60AB
:1013A0000FE000F067FD0028D0D1C046C046002005
:1013B00070BD63190B60121B6E685E600B681A606B
:1013C0002C60096800291DBF4A68002A091D0021F8
:1013D0000160C046C04605F1080070BDD80200207B
:1013E00070B504460D46164600F00AFD3246294601
:1013F0002046BDE8704000F00DBD000062B38B07D1
:1014000008D0521E11F8013B00F8013B00F0248087
:101410008B07F6D1830740F0208000BF103A07D336
:1014200030B4B1E83810103AA0E83810F9D230BC26
:10143000530724BFB1E80810A0E8081044BF51F8D2
:10144000043B40F8043BD20724BF31F8022B20F8BC
:10145000022B44BF0B7803707047083A07D3B1E8FA
:101460000810083A40F8043B40F804CBF7D2530781
:10147000E4E7000000B9704738B5A0F1080420681F
:10148000082833D310F0070F30D1C046C0461848A3
:10149000416809B18C4203D26160446017E019468B
:1014A0004B680BB1A342FAD30B685D18AC421BD357
:1014B000A54204D12268D2180A600C4607E04A68A7
:1014C0001AB123681B199A420ED362604C6061689E
:1014D00051B1226813198B4206D1002303600868BA
:1014E0008018206048686060C046C04631BD00007A
:1014F000D80200201B4213D1094236D12AB18446BA
:10150000B0FBF2F002FB10C2704700F0C9BCFCD384
:101510000022002370470B000200002100207047CA
:10152000904271EB030CF6D370B5B1FA81F4B3FAC3
:1015300083F52C1BA340C4F1200532FA05F6334392
:10154000A2405FF00046E64002E05B085FEA32023C
:10155000841A71EB030524BF204629467641F4D353
:1015600002000B003000002170BD012ACFD970B5F8
:10157000140C20D0B1FA81F4B2FA82F5C4F120043F
:101580006419B4F12006D6D3B2405FF00044F440B1
:10159000002502E052085FEA3303C61A71EB020E1F
:1015A00024BF3046714664416D41F3D302000B0005
:1015B0002000290070BD0C46B1FBF2F102FB114581
:1015C0002D0445EA1045B5FBF2F402FB145580B238
:1015D00040EA0545B5FBF2F002FB105240EA044038
:1015E00070BD30B4436803F0004201211B031B0BA4
:1015F000436004BF0368002B08D10DE00368DD0FD2
:1016000045EA440444605B000360491E4468E30209
:10161000F4D523031B0B436043681A43426008461A
:1016200030BC70474FF4001C1CEB410F94BF1CEB07
:10163000430F09E041EA030C50EA4C0C52EA0C0C4F
:1016400003D2994208BF9042704714BF8B42824236
:10165000704700004FF4001C1CEB410F94BF1CEBC3
:10166000430F09E041EA030C50EA4C0C52EA0C0C1F
:1016700003D28B4208BF8242704714BF9942904206
:101680007047000070B504460D466068C0F30A500C
:1016900040F2FF71884207D16068000304BF2068F0
:1016A000002817D0022070BD20B92046FFF799FF0F
:1016B000012867DA012D0FDB40F2FF71091A8D4214
:1016C0000AD36068002847BF00202F4900202F4917
:1016D000C4E90001012070BD4142A942616806DAF7
:1016E0006FF31E51401941EA0050606041E0401E16
:1016F00063680122451962F31F5305F1350001F0BB
:1017000000416360352803D361600020206070BD14
:10171000002215F11F0F04DA226823600020203513
:101720006060684213D0521E25689241C0F12003C8
:10173000D2439D4045EAD27225686668C54006FAE4
:1017400003F32B432360636823FA00F06060606852
:1017500008436060B2F1004F03D80DD12078C00774
:101760000AD52068401C2060206828B96068401CA9
:1017700060604FF0FF3070BD6068884204BF206831
:101780000028F6D1002070BD0000F0FF0000F07FBF
:10179000F446400D40EAC120490006D200F014F89A
:1017A000004248BF6FF00040604700F00DF84FF076
:1017B000004188428CBF084640426047400D40EAE5
:1017C000C120490080F00D8040F00040490DA1F596
:1017D0008061491C05D4D1F11F0154BFC840C01716
:1017E00070474FF000007047010040F10980F44657
:1017F000404200F005F851F000416047010000BF91
:1018000009D0B0FA80F18840C91CC1F5846109058E
:1018100001EBD0214005704770B44FF0004591EACC
:10182000030F44BF6B4000F03DBB00BF841A71EB57
:10183000030604D26E40001BB141121973414FF4EC
:10184000001C1CEB410F34BF7CEB430684E00C0D05
:10185000A4EB1356362E7DDC012E43DC45EAC32370
:1018600043EA525312BFD20292025B08240545EAB2
:10187000C12141EA5051D2EBC020994125D407D172
:10188000B0FA80F610FA06F164D00020203608E0A5
:10189000B1FA81F6B140C6F1200220FA02F21143FA
:1018A000B0404FEAF474B4EB465434F001064FEA0A
:1018B00074040AD8D6F50016760D04F00044F04002
:1018C00061FA06F25040F1404840C00A40EA4150F7
:1018D00021F0004128BF5FEA500550F1000044EBC1
:1018E000D12137E045EAC323DB0A45EAC121C90A11
:1018F000B6F120050EDD42EA0242120CC5F12006C7
:1019000003FA06F6EB4042EA06056D42984161F1A2
:1019100000010DE062FA06F5F240554063FA06FC5C
:1019200082EA0C02F3405A406D42904161EB0301A0
:1019300011F4801F05D1641E620502D06D00404184
:10194000494121F48011430875F1004350F1000032
:1019500041EB045170BC70471CEB410F15D223F0D2
:10196000004352EA43060BD04FEA4C0CBCEB410F4C
:1019700004D80C0D661E342EB7DDEBE7801A9941B2
:1019800050EA410608BF0021E4E708BF1CEB430F03
:1019900028BF6FF00001DDE7B0B581EA030C0CF061
:1019A000004C40F2FF7515EA11541DBF15EA13579C
:1019B000AC42AF4239E0E41923EA455343F48013C3
:1019C000C90241F0004141EA505EC7021100A7FB85
:1019D000020200284FF00000EEFB01204FF0000152
:1019E000E3FB072118BF42F00102401800214941E2
:1019F000E3FB0E01A4F580640F0302D252004041C4
:101A0000494154F101046CDD470872F1004250F184
:101A1000000051EB0451A1F580115CBF41EA0C01BB
:101A2000B0BD4CEA05510020B0BD05EA1357AC42E9
:101A300014BFAF4241E050EA410E1CBF52EA430ED0
:101A400002E061460020B0BD24423C441BD15FEA65
:101A5000070EF6D0090302BF01460020AEF1140EB6
:101A6000B1FA81F7AEEB070401FA07FE0C37C7F1B4
:101A7000200100FA07F7C8404EEA000E23EA45535A
:101A800043F48013A2E733F00043B3FA83F704BFB3
:101A9000B2FA82FE77440B3FE41BB7F1200E2FBF52
:101AA00002FA0EF3BB40C7F1200E22FA0EFE38BF39
:101AB00043EA0E03BA40641C82E750EA410E14BFA9
:101AC00052EA430E6FF000014FF4001717EB430F7B
:101AD0008ABF194617EB410FB5E74CEA05510020C4
:101AE000B0BDD4F10104B4F120070FDAC4F120072E
:101AF000520828BF42F0010210FA07F501FA07F771
:101B0000E1BF2A43E0403843E1400FE0352C98DC48
:101B1000C7F1200452EA400220FA07F218BF42F04F
:101B2000010231FA07F0A1400A43002172F100429C
:101B300050F1000051EB0C01B0BD0000F0B540F2D7
:101B4000FF7581EA030C0CF0004C15EA11541DBF1F
:101B500015EA1357AC42AF42E5E0BC41C1F31301B3
:101B6000C3F31303801A994143F4801304D2641E13
:101B70004000494180185941C90241EA5051B1FB26
:101B8000F3F603FB1611A2FB0675D7EBC020A941A3
:101B900002D2761E80185941C90241EA5051B1FB68
:101BA000F3FE03FB1E11A2FB0E75D7EBC020A9416B
:101BB00003D2AEF1010E80185941890241EA9051D9
:101BC000760546EA8E2EB1FBF3F603FB1611A2FB57
:101BD0000675D7EB8020A94102D2761E80185941A4
:101BE000C90241EA50514EEA060EB1FBF3F603FB7F
:101BF0001611A2FB0675D7EBC020A94102D2761EB2
:101C000080185941C90241EA5051B1FBF3F703FB77
:101C10001711A2FB0735D3EBC020A94167F10007DC
:101C20000CBF004247F0010766F3D5274FEA1E318B
:101C3000B80814F5806412DDBD0775F1004250EB61
:101C40000E5051EB045111F5801F5CBF41EA0C01AD
:101C5000F0BD4CF07F6141F0E0410020F0BDBD07D8
:101C60006D0840EA0E5041F48011D4F10104B4F142
:101C700020060ADAC4F120060200E04001FA06F369
:101C8000E1401843B24015430EE0342C13DCC6F19A
:101C9000200445EA40056D0820FA06F2154321FAB2
:101CA00006F0A1400D43002175F1004250F1000003
:101CB00051EB0C01F0BD00205FEA0C01F0BDCFB983
:101CC00092185B41B3FA83F704BFB2FA82F6BF19E8
:101CD0000B3FB7F120062FBF02FA06F3BB40C7F156
:101CE000200622FA06F638BF3343BA401CB1E41985
:101CF000641E33E77F4231F00041B1FA81F404BF42
:101D0000B0FA80F6A4190B3CB4F120062FBF00FAFC
:101D100006F1A140C4F1200620FA06F638BF31438F
:101D2000A0403C1B1AE7AC421ABF05EA1357AF426A
:101D300012E050EA41061CBF52EA4306BFE750EAF0
:101D40004107304661461CBF41EA0551F0BD52EAE9
:101D5000430C08BFC143F0BD00204FF4001616EB42
:101D6000410F98BF16EB430F08BF16EB410F24BF7E
:101D7000C14305E016EB430F0CBF61464CEA055129
:101D8000F0BD000080B5134800F0F6F80FF24801EE
:101D9000016041608160C1600161416181610FF258
:101DA0003C0242628162C162016341630FF2300210
:101DB00082630FF23402C2630164416401BD10B555
:101DC000044800F0D9F80446206808B9FFF7DAFFA4
:101DD000204610BD00000020000000002E00000082
:101DE00066616C7365000000747275650000000028
:101DF00091FBF2F303FB1211C0E9003170470000C0
:101E000080B5DFF80C0000F0B7F8806902BD000073
:101E10009000002030B430B90FF24800D0E90045FE
:101E2000C2E900451BE00170012030BC704730B4AE
:101E300031B90FF23800D0E90045C3E900450EE0A2
:101E40001AB930BC6FF00100704708B10A780280FF
:101E50000978481E804130BCC043C00F7047002045
:101E600030BC7047000000000000000000000000CF
:101E7000000000000749086808B1002070470648C4
:101E8000C008C00008600549C908C900091A0160F6
:101E9000704700BFFC0200200F0700200809002047
:101EA00070470000841A71EB030603D2001BB14196
:101EB000121973414FF4001C1CEB410F34BF7CEB33
:101EC000430443E00C0DA4EB1356352E50DC45EAD9
:101ED000C323DB0A45EAC121C912B6F120050DDD95
:101EE00063FA05F6EB4086EA0305124218BF45F097
:101EF0000105C01851F100010CD213E062FA06F599
:101F0000F2405540F3415A40B340F3405A408018E4
:101F1000594107D349085FEA30005FEA350528BF19
:101F200045F0010501F58011420875F1004250F1BC
:101F3000000041EB045170BC4FF4001C1CEB410F3E
:101F400038BF70470020090D090570471CEB410F91
:101F500010D252EA43060BD0BCEB410F05D80C0D52
:101F6000AB43661E342EB5DD02E0AB438018594109
:101F700070BC704770BC70477047000010B5DFF848
:101F80002448002804D1012021680882002010BDC7
:101F9000DFF8140800680068804720680A3010BD28
:101FA00080B5DFF800080068C178DFF800285278B3
:101FB0008A420DD38278002A0AD18288002A07D16A
:101FC0008172DFF8E407006840688047002002BDA6
:101FD000022002BD10B5DFF8CC47002804D1012053
:101FE00021680882002010BDDFF8BC070068806807
:101FF000804720680C3010BD10B5DFF8A847206876
:10200000C1784079DFF8A827126892699047216863
:102010008A7A002A14D0002812D1087900280FD11A
:10202000887800280CD1DFF880070068C0688047F6
:1020300020684179C1722068C1780173002010BD09
:10204000022010BD10B5DFF85C170968002803D125
:1020500002200882002010BDDFF8584700202080B1
:1020600008787F22104218D1487A0146890603D5A4
:10207000002141F0020121702178400609D501F0CC
:10208000FE002070DFF820070068006980472046C6
:1020900010BD41F001002070F4E700F07F02012A3A
:1020A00001D1204610BD00F07F0002281BD14879E5
:1020B00000F00F01DFF80027000652F8210008D5D4
:1020C00000F030001028DDD1002040F00100207029
:1020D000D8E700F44050B0F5805FD3D1002040F045
:1020E00001002070CEE7002010BD70B5DFF8B40607
:1020F0000068017811F07F0105D1417A01F0DF011C
:102100004172002070BD022954D14188002951D16B
:10211000017900294ED1417921F08005DFF89846F8
:102120000A0654F8252002D502F0300201E002F43C
:102130004052DFF878361B789D423BD2002A39D0D6
:10214000807A002836D0080654F825000BD500F018
:102150003000102827D1284600F0A3FB3021284664
:1021600000F058FB1FE000F44050B0F5805F1AD13A
:102170004BF68F76002D0CD1DFF8400690F82C102E
:10218000002000F0D8FB2068304080F440502060F0
:1021900009E0284600F074FB54F82500304080F434
:1021A000405044F82500DFF8000600684069804789
:1021B000002070BD022070BD38B5DFF8E805026868
:1021C000537923F08000DFF8F0151C0651F8204009
:1021D00002D504F0300401E004F44054DFF8CC559B
:1021E0002D78A84207D25588002D04D1002C02D0AA
:1021F000927A002A01D1022032BD1A0651F820201D
:1022000007D548F6BF731A4082F0100241F820202B
:1022100006E04BF68F731A4082F4805241F820207A
:10222000DFF88405006880698047002032BD80B5F2
:10223000DFF870050068417A41F020014172DFF853
:1022400068050068C0698047002002BDDFF854259A
:102250001268538A002804D18888C01A108200208E
:102260007047086818187047F8B5DFF838452068D7
:1022700000F110052E88A968080016D0002E14D091
:10228000A888864200D906463046884707462888EF
:10229000801B2880688830186880002000F038FB98
:1022A00032460146384600F08BFB288800280CD0C7
:1022B0004FF44050DFF8081508800021084600F070
:1022C00031FB3020DFF8FC1408802888A988884278
:1022D00003D3032021680872F1BD002803D0052034
:1022E00021680872F1BD0FD1062021680872002014
:1022F000DFF8D414096889B2DFF8D02442F811005D
:102300003020DFF8C0140880F1BD2DE9F041DFF87E
:102310009444206800F110063788002F1CD1007A01
:10232000042819D1DFF89C04DFF8A4140A78012AE4
:102330000ED10022DFF890341B689BB2DFF88C547A
:1023400045F81320302202800425002008702BE07D
:1023500007251021018027E0B088B84201D3042569
:1023600000E00225874200D907463846B168884711
:102370008046002000F0C0FA3A460146404600F090
:1023800009FB3946002000F0CDFA3088C01B3080B0
:102390007088381870803020DFF8281408804FF4D7
:1023A0004050DFF81C14088020680572BDE8F081F9
:1023B00038B50220DFF8EC4321684D780A787F2396
:1023C0001A4230D1092D02D1FFF7EAFD3FE0052D79
:1023D0000FD1C878802808DA8878002805D1888845
:1023E000002802D1887A002801D008204DE0002082
:1023F0002DE0032D0BD1CA78012A28D18A88002A22
:1024000025D1497A890622D5FFF711FF1FE0012D5A
:102410001DD1CA78012A1AD18A88002A17D1497A8F
:1024200089060DD413E002F07F01012904D10B2DA0
:102430000DD1FFF7E1FD0AE0022908D1012D02D1FB
:10244000FFF753FE03E0032D01D1FFF7B5FE00288F
:1024500009D02846DFF858130968496988470328D6
:1024600001D1092011E0002801D008200DE006204C
:102470000021DFF85423126892B2DFF8503343F89A
:1024800012103021DFF83C2311802168087231BD21
:1024900038B5C44C206841780025062916D101784A
:1024A0007F22114279D18078012803D1C048006889
:1024B000C56972E0022803D1BD480068056A6CE076
:1024C00003286AD1BA480068456A66E0002940D10D
:1024D0004288002A3DD1C288022A3AD10279002AD4
:1024E00037D101787F22114204D18288002A01D19C
:1024F000B84D52E001F07F02012A0DD12946407902
:10250000AB4A126892699047002846D12068807AC9
:10251000002842D0AF4D40E001F07F0102293CD1BC
:10252000407900F00F0100F07002A34B000653F851
:10253000210002D500F0300001E000F440509B4B38
:102540001B78994229D2002A27D1002825D0A14DF5
:1025500023E0082905D100787F2108421DD19E4D36
:102560001BE00A2919D1017801F07F01012914D15A
:10257000817A002911D0418800290ED101790029E2
:102580000BD1C188012908D129464079884A1268AF
:1025900092699047002800D1904D2068290007D00B
:1025A00000214182206885610846A847002006E096
:1025B00040787F49096809698847032806D023685D
:1025C0001A8A11464FF6FF75A94203D109202168E6
:1025D000087231BD022801D0002A02D108201872E9
:1025E00031BD1878000626D5D8880090009D954208
:1025F00002D20098188215E0824213D26C4800681B
:1026000090F82C0003469A4203D2002070490870CB
:1026100008E091FBF0F200FB1210002802D101202B
:102620006B4908706248006890F82C002168888225
:10263000BDE8314069E6032018724FF4405060490C
:10264000088031BD38B56048006880B2644931F80F
:102650001000400000F1804505F5C045514C206850
:10266000017A092917D015F8011B017015F8010B23
:1026700021684870AD1C35F8020B00F085F921681F
:102680004880AD1C35F8020B00F07EF92168888087
:1026900068882168C8800120216808722068C08885
:1026A000002802D1FFF784FE01E0FFF7F1FEBDE84C
:1026B000314042E010B53B4C2068017A022901D03C
:1026C000042904D1FFF721FE2068007A16E00629CC
:1026D00013D1417805290AD101787F22114206D110
:1026E000C07800F044F830480068006A80473048FD
:1026F000006880688047082000E008202168087290
:10270000BDE8104019E010B5264C2068007A032877
:1027100001D0052804D1FFF7A7FD2068007A08E062
:10272000072805D122480068C0688047082000E0DB
:10273000082021680872BDE8104080B51F4890F855
:102740002C10002000F0F7F816480068017A0829DC
:1027500006D14FF480511A4A11801021194A118074
:10276000007A092801D1012002BD002002BD70B409
:102770000E4909780022104C48F68F7609E013467E
:10278000DBB254F82350ADB235401D4344F823501A
:10279000521C8A42F3D340F080001249086070BC9A
:1027A00070470000C0020020C80200204C02002038
:1027B000C4020020E4020020005C00403C01002034
:1027C000E8020020EA020020505C00400460004063
:1027D00002030020452000087D1F0008D51F0008C7
:1027E000086000404C5C0040704700004FF6F871F4
:1027F0000840DFF87C110860704710B4DFF87421DE
:1028000052F8203048F68F142340194342F8201024
:1028100010BC704710B4DFF85C2152F8203048F645
:10282000BF742340CC0601D583F01003890601D57F
:1028300083F0200342F8203010BC7047DFF83411D9
:1028400051F8202048F6BF731A4082F0300241F858
:1028500020207047DFF81C1151F820204BF68F73B1
:102860001A4082F4405241F820207047DFF80411EA
:1028700051F8202048F68F631A4041F82020704715
:10288000DFF8F01051F82020520409D551F820202B
:1028900092B248F68F731A4042F4804241F82020E9
:1028A0007047DFF8D01051F82020520609D551F8B2
:1028B000202092B248F68F731A4042F0400241F84D
:1028C00020207047DFF8A820126892B202EBC00007
:1028D000DFF8A4204908490042F810107047DFF8DB
:1028E0009020126892B202EBC000DFF890204908F5
:1028F000490042F810107047DFF87410096889B277
:1029000001EBC000DFF8701051F8100080B2704782
:102910001749096889B201EBC000184951F8100045
:1029200080B27047124A126892B202EBC000144A99
:1029300042F8101070470E4A126892B202EBC000C3
:10294000104A02EB40003F290ADB4A091F231942C3
:1029500000D1521E92B2910241F4004101607047D1
:102960004A08C90700D5521C92B291020160704713
:10297000505C0040005C0040006000400860004087
:10298000046000400C6000400146C9B2090241EAFF
:102990001020704710B4490001F1804101F5C04199
:1029A000521C521009E010F8013B10F8014B43EAA9
:1029B000042321F8023B891C521EF4D110BC70473D
:1029C000490001F1804101F5C041521C521004E060
:1029D00051F8043B20F8023B521EF9D17047000029
:1029E00080B5DFF8841388420BD101214FF40060D9
:1029F00000F03AFA00214FF40060BDE8044000F016
:102A000033BAB0F1804F09D10121084600F037FAFE
:102A100000210120BDE8044000F031BADFF84C137A
:102A2000884209D10121022000F029FA0021022068
:102A3000BDE8044000F023BADFF83413884209D11E
:102A40000121042000F01BFA00210420BDE804400D
:102A500000F015BADFF81C13884209D101210820C3
:102A600000F00DFA00210820BDE8044000F007BA8C
:102A7000DFF80413884209D10121102000F0FFF98A
:102A800000211020BDE8044000F0F9B9DFF8EC1295
:102A9000884209D10121202000F0F1F900212020F5
:102AA000BDE8044000F0EBB9DFF8D41288420BD146
:102AB00001214FF4005000F0D7F900214FF40050ED
:102AC000BDE8044000F0D0B9DFF8B81288420BD15D
:102AD00001214FF4002000F0C7F900214FF400203D
:102AE000BDE8044000F0C0B9DFF89C1288420BD169
:102AF00001214FF4801000F0B7F900214FF480104D
:102B0000BDE8044000F0B0B9DFF8801288420BD174
:102B100001214FF4001000F0A7F900214FF400103C
:102B2000BDE8044000F0A0B9DFF86412884209D182
:102B30000121402000F0A3F900214020BDE804401D
:102B400000F09DB9DFF84C12884209D101218020A4
:102B500000F095F900218020BDE8044000F08FB915
:102B6000DFF8341288420BD101214FF4807000F05D
:102B700086F900214FF48070BDE8044000F07FB971
:102B8000DFF8181288420BD101214FF4803000F099
:102B90006BF900214FF48030BDE8044000F064B9C7
:102BA000DFF8FC1188420BD101214FF4003000F016
:102BB0005BF900214FF40030BDE8044000F054B947
:102BC000DFF8E01188420BD101214FF4802000F0A2
:102BD0004BF900214FF48020BDE8044000F044B9D7
:102BE00001BD10B40388DFF88021904212D0DFF8D5
:102BF0009041A0420ED0B0F1804F0BD0DFF86C4175
:102C0000A04207D0DFF86841A04203D0DFF864415A
:102C1000A04204D14FF68F7423404C882343DFF841
:102C20005841A04208D0DFF85441A04204D04FF6EA
:102C3000FF442340CC88234303808B8883850B8803
:102C4000038590420FD0DFF8382190420BD0DFF897
:102C50004C21904207D0DFF84821904203D0DFF8A2
:102C60004421904201D1097A01860121818210BC60
:102C7000704730B4028C4FF6FE731A400284048C05
:102C80008288038B4FF68C752B400D882B434FF6B3
:102C9000FD752C400D892C434D882C43DFF8C8501E
:102CA000A8420FD0DFF8D850A8420BD0DFF8EC5084
:102CB000A84207D0DFF8E850A84203D0DFF8E4507C
:102CC000A84210D14FF6F7752C404D892C434FF692
:102CD000FB752C408D882C434FF6FF452A408D898B
:102CE0002A43CD892A4382800383C988818604844C
:102CF00030BC70470029018803D041F001010180F8
:102D000070474FF6FE721140018070470029B0F8FD
:102D1000441004D041F40041A0F844107047490425
:102D2000490CA0F8441070470029018803D041F0F5
:102D30008001018070474FF67F721140018070471B
:102D4000028B4FF6F7731A4011430183704700223C
:102D5000038A0B4080890840002B02D0002800D055
:102D60000122104670470000002C01400004004082
:102D700000080040000C004000100040001400401B
:102D800000340140004C014000500140005401401B
:102D900000180040001C004000200040004001409E
:102DA00000440140004801403B490860704710B4AE
:102DB00038490A6802F00C02082A18D10A6802F49D
:102DC00070120B6803F48033920C921C002B03D119
:102DD000324B5A4302600CE00B689B0303D52F4B28
:102DE0005A43026005E02E4B5A43026001E02C4A30
:102DF00002600A6802F0F0032A4A1B099B5C04681F
:102E000024FA03F343600C6804F4E064240AA45C2D
:102E1000E34083600B6803F46053DB0A9B5C446807
:102E200024FA03F3C360096801F4404102EB9131D5
:102E3000097CB3FBF1F1016110BC70471A4A00290B
:102E4000116802D008431060704721EA000010604A
:102E50007047164A0029116802D008431060704775
:102E600021EA000010607047114A0029116802D061
:102E700008431060704721EA0000106070470D4A57
:102E80000029116802D008431060704721EA000051
:102E90001060704704100240D800424200093D0013
:102EA00000127A00E8010020181002401C100240B5
:102EB0000C1002401010024080B501210420FFF7E1
:102EC000BDFFF020ADF8000003208DF802001020B7
:102ED0008DF8030000A9A64800F04EF901BD014697
:102EE000481E0029FBD1704770B50446A14D8020D3
:102EF000686010206860202068606420FFF7EFFFA2
:102F0000202028606420FFF7EAFF00260DE0102053
:102F100068602020686064006420FFF7E0FF2020E4
:102F200028606420FFF7DBFF761C082E04DA2006F9
:102F3000EDD510202860ECE78020286070BD70B5CA
:102F400004468C4D80206860102028602020686036
:102F50006420FFF7C4FF202028606420FFF7BFFF34
:102F600000260DE010206860202068606400642066
:102F7000FFF7B5FF202028606420FFF7B0FF761C24
:102F8000082E04DA2006EDD510202860ECE780201A
:102F9000286070BD10B50C46FFF7A6FF2046BDE8BF
:102FA0001040CCE710B50C46FFF79EFF200AFFF754
:102FB000C6FF2046C0B2BDE81040C0E710B5FFF71D
:102FC0007BFF6C4C8020206020202060102020603F
:102FD00040206060642000F07EF940202060642082
:102FE00000F079F90120FFF77FFF782000F073F9F6
:102FF0000020FFF779FF012000F06DF90020FFF7B6
:1030000073FF012000F067F90020FFF76DFF01203A
:1030100000F061F91721B020FFF7BCFF8021BC2030
:10302000FFF7B8FF00213B20FFF7B4FF1621B020C7
:10303000FFF7B0FF4FF6F971B820FFF7B3FF11208B
:10304000FFF752FF0121BA20FFF7A4FF0021BB20A8
:10305000FFF7A0FF60213A20FFF79CFF1021BF205F
:10306000FFF798FF5621B120FFF794FF3321B220DC
:10307000FFF790FF1121B320FFF78CFF1121B32040
:10308000FFF788FF0221B420FFF784FF2B21B52032
:10309000FFF780FF4021B620FFF77CFF0321B72018
:1030A000FFF778FF0421B920FFF774FF0421BD204A
:1030B000FFF770FF0021BE20FFF76CFF1121C02039
:1030C000FFF768FF1121C120FFF764FF1121C22023
:1030D000FFF760FF4FF40151C320FFF763FF46F293
:1030E000C0042146C420FFF75DFF4FF48151C52085
:1030F000FFF758FF2146C620FFF754FF45F2335132
:10310000C720FFF74FFF0021C820FFF743FF002132
:10311000C920FFF73FFF0021CA20FFF73BFF4FF414
:10312000F871EC20FFF73EFF0221CF20FFF732FFBE
:1031300040F60401D020FFF735FF0121D120FFF731
:1031400029FF0021D220FFF72DFF40F60E51D3209A
:10315000FFF728FF41F2A411D420FFF723FF0E212F
:10316000D520FFF717FF2920BDE81040BCE600007E
:103170000008014010080140F0B40023CC7804F0AE
:103180000F02E40601D58C7822430C88E4B2002CAF
:103190001CD0046803E0482D00D106615B1C082B9D
:1031A00013D2012505FA03F635460F882F40AF42AA
:1031B000F4D19D000F27AF40BC4302FA05F52C4324
:1031C000CD78282DE7D14661E8E704600B88FF2B16
:1031D0001FDD4468002319E0012503F1080605FA04
:1031E00006F635460F882F40AF420ED19D000F27BF
:1031F000AF40BC4302FA05F52C43CD78282D00D111
:103200004661CD78482D00D106615B1C082BE3D3C5
:103210004460F0BC704700228068084200D0012260
:103220001046704770B4194A002801D5946900E02F
:103230001468C0F3034583B200F44016B6F5401F8E
:1032400006D124F07064156825F0706515600FE0F4
:10325000C60206D5032606FA05F5AC4344F07064B1
:1032600006E0450D2D0103FA05F5AC4344F070640A
:10327000002904D0410D090103FA01F10C43002893
:1032800001D5946100E0146070BC704704000140F7
:103290000901002806D51F4A00F00F00801800F829
:1032A000041C70471C4A8154704710B5B0F1807FF0
:1032B00001D3012010BD194C0002000A401E6060BD
:1032C0000F214FF0FF30FFF7E3FF0020A060072041
:1032D0002060002010BD01B5114800684FF47A71DC
:1032E000B0FBF1F0FFF7E1FF0028F5D10D480099A0
:1032F000016001680029FCD108480021016081605B
:1033000001BD08480168002902D00168491E01601A
:103310007047000018ED00E000E400E010E000E07D
:103320000C020020E0020020EBE7000080B5012144
:103330000820FFF783FD0120ADF8000003208DF881
:10334000020010208DF8030000A98448FFF714FF45
:1033500001BD70B584B00120002100AC01E0015531
:10336000401C0928FBD301208DF8000003257C4E6A
:103370000821304600F050F9002802D05220E070B9
:1033800004250221304600F047F9002804D0092D19
:1033900002D2512028556D1C0421304600F03CF922
:1033A000002804D0092D02D2502028556D1C01217F
:1033B000304600F031F9002804D0092D02D24F2008
:1033C00028556D1C654E4FF48041304600F024F9BD
:1033D000002804D0092D02D2042028556D1C4FF47A
:1033E0000041304600F018F9002804D0092D02D21F
:1033F000052028556D1C4FF48051304600F00CF923
:10340000002804D0092D02D21B2028556D1C4FF432
:103410000051304600F000F9002804D0092D02D2F6
:103420001C2028556D1C2021304600F0F5F800289E
:1034300004D0092D02D20F2028556D1C40213046A2
:1034400000F0EAF8002804D0092D02D215202855F2
:103450006D1C0821304600F0DFF8002804D0092D4B
:1034600002D2292028556D1C1021304600F0D4F8D6
:10347000002803D0092D01D2282028550020012141
:1034800006E0384A8A5C0B5D9A4200D00120491C54
:103490000929F6D30121334B02E00A5DCA54491CC5
:1034A0000929FAD300280AD00120FFF725FA01469E
:1034B000092200A8FFF76EFA0120FFF7BFF97FBDD0
:1034C00070B500F0BFF824A000F00EF90FF2A000D4
:1034D00000F00AF90FF2B40000F006F90FF2C40090
:1034E00000F002F94FF47A70FFF7F5FEFFF766FD82
:1034F00000F06CF9FFF71AFF184C012020614FF41F
:10350000A06000F069F900F0BFF900F0A3F900F045
:10351000EDF900F057F88021204600F07DF8124DBB
:103520002870124E05EB800040683080FFF711FFD5
:103530008021204600F070F82978814208D0481E8A
:103540008041C00F2870287805EB800040683080EB
:103550001E20FFF7C0FEE9E70D0A0000000C014045
:1035600000080140CC02002020020020342C014041
:103570000D0A44657620426F61726420446562756D
:1035800067204F75747075740D0A0000202020208C
:103590002044657369676E6564206279205A776597
:1035A000620D0A0053544D333246313033433820D4
:1035B00036344B20524F4D2032304B2052414D0D6E
:1035C0000A0D0A0080B501210520FFF737FC012113
:1035D0000820FFF733FC01210C48FFF723FE0F20E2
:1035E000ADF8000001208DF8020048208DF803009E
:1035F00000A90748FFF7C0FD4FF2F800ADF8000042
:1036000000A90448FFF7B8FD01BD0000000230002A
:1036100000080140000C014038B504460D46FFF794
:10362000FAFD00280CD10A20FFF755FE2946204656
:10363000FFF7F1FD002801D1012032BD002032BD8D
:10364000002032BD10B586B0012144F20400FFF71E
:10365000F5FB4FF40070ADF8000018208DF8030062
:1036600003208DF802001D4C00A92046FFF784FDC1
:103670004FF48060ADF8000004208DF8030000A92D
:103680002046FFF779FD4FF4E120029000200390DF
:10369000ADF81000ADF814000C20ADF81200104C7D
:1036A00002A9204600F032F9012240F225512046BD
:1036B00000F08EF90121204600F07EF925208DF8DA
:1036C000040000208DF805008DF8060001208DF81B
:1036D000070001A800F085F806B010BD0008014001
:1036E00000380140704700000EB400B582B003A955
:1036F0000091024600AB0121034878440A30FCF7F0
:10370000F5FC06BC5DF810FBCF0C000080B5012174
:103710000420FFF793FB01210846FFF78FFB0121EF
:103720004FF40060FFF78AFB4FF48070ADF80000A3
:1037300018208DF8030003208DF8020000A921480D
:10374000FFF71AFD01BD10B588B01F4C2046FFF7EA
:1037500047F940F27F10ADF8140000200490ADF856
:1037600016008DF8180004A92046FFF73AFA012147
:103770002046FFF7D9FA6020ADF800000120ADF82F
:1037800002000020ADF8040002904FF48070ADF804
:103790000C000020ADF80E00C020ADF8060000A916
:1037A0002046FFF766FA08212046FFF7C9FA0121F3
:1037B0002046FFF79FFA01212046FFF7A7FA08B03D
:1037C00010BD000000080140002C014080B5FFF74B
:1037D0009DFFBDE80140B6E7194908431949086053
:1037E000704770B403781A460121C478002C1CD0AD
:1037F000144B1B6803F4E063C3F5E0631B0A4478D1
:10380000C3F10405AC4085780F2626FA03F32B405C
:1038100023431B010C4C1355007800F01F0291400C
:103820000A4A401142F8201007E003F01F0001FA95
:1038300000F00749521141F8220070BC70470000A7
:103840000000FA050CED00E000E400E000E100E01B
:1038500080E100E080B50020FFF7A6FA01214FF4D7
:103860000000BDE80440FFF7F4BA03201D490860DA
:1038700070471C481C49897A002902D00521016043
:103880007047012101607047E0B54FF4A060FFF779
:10389000A3FF4FF4802000F000F94FF48020019046
:1038A00008208DF8090001208DF80A0001A800F019
:1038B000BFF814208DF8000001208DF801000020D1
:1038C0008DF8020001208DF8030000A8FFF789FFA2
:1038D0002A208DF8000000208DF8010000A8FFF7D5
:1038E00080FF07BDF4020020A40200200448C0614C
:1038F0000221017203490162034A426208680047DB
:10390000A40200203C0100206C01002030B585B0ED
:1039100004460D46208A4CF6FF710840E9880843AA
:103920002082A0894EF6F3110840A988084329890E
:10393000084369890843A081A08A4FF6FF410840E7
:10394000A9890843A08200A8FFF731FA19488442E8
:1039500001D1039800E00298296819225043A289F6
:10396000120403D54900B0FBF1F102E08900B0FB7D
:10397000F1F16420B1FBF0F000010209642303FBC4
:103980001211A289120408D5C90032311A46B1FBBE
:10399000F2F101F00701084307E0090132311A464C
:1039A000B1FBF2F101F00F010843208105B030BDF9
:1039B00000000000003801400029818903D041F453
:1039C0000051818170474DF6FF721140818170472F
:1039D00010B40B46DBB25B09012401F01F0104FAAD
:1039E00001F1012B01D10C3004E0022B01D1103088
:1039F00000E01430002A026802D01143016002E0A6
:103A000022EA0101016010BC70478088C005C00D2A
:103A1000704700220088084200D0012210467047FB
:103A20000122090A02FA01F189B2C94301807047F3
:103A300030B40168CB431B498279002A26D00A465C
:103A400014682340136053680468A34353600379E8
:103A5000CC18236805682B43236093680468A3434C
:103A60009360D3680468A343D36043790568102B3F
:103A700007D1916829439160D16800680843D060FC
:103A800009E0CC1820682843206004E000790C1875
:103A900020681840206030BC7047034908607047B8
:103AA0000000000000040140140401402DE9F04131
:103AB000704C48F6BF764BF68F7824E054F82170AE
:103AC000BFB238040DD554F8210040F68F72104073
:103AD00044F821006848297800EB810050F8040C74
:103AE000804738060FD5287854F8201089B248F658
:103AF0000F72114044F820106048297800EB8100D3
:103B000050F8040C8047616C5D480180090440F165
:103B1000AE8047F6FF716164018811F00F01594DC5
:103B20002970CBD1584D216801F44051298021687A
:103B300001F030016980216808EA010181F4005137
:103B400021602168314081F0200121600088C00699
:103B500021D4206880B248F60F7108402060FEF73B
:103B6000A9FD206808EA00002988CA0401D580F46C
:103B70008050890401D580F40050206020683040D6
:103B80006988CA0601D580F01000890601D580F049
:103B9000200020606BE02768BFB2380621D520687E
:103BA00080B248F60F7108402060FEF783FD206860
:103BB00008EA00002988CA0401D580F480508904ED
:103BC00001D580F400502060206830406988CA0622
:103BD00001D580F01000890601D580F0200020601A
:103BE00045E0380520D5206840F68F7108402060F8
:103BF000FEF728FD206808EA00002988CA0401D5DC
:103C000080F48050890401D580F400502060206841
:103C100030406988CA0601D580F01000890601D5B8
:103C200080F02000206022E038047FF56CAF20682F
:103C300040F68F7108402060FEF765FD206808EAB5
:103C400000002988CA0401D580F48050890401D578
:103C500080F400502060206830406988CA0601D591
:103C600080F01000890601D580F020002060BDE8BA
:103C7000F0810000005C0040CC010020B001002079
:103C8000EE02002003030020E802002080B500209F
:103C900069490968887200F0E9F8684800214160C4
:103CA0004FF43F41664A1180016000206549086079
:103CB00001BD80B560480021026891720268D1722E
:103CC0006149C979006841720020FEF78FFD4FF409
:103CD00000710020FEF791FD10210020FEF79AFDF3
:103CE00018210020FEF7FBFD58210020FEF7EAFD19
:103CF0000020FEF7BBFD554890F82C100020FEF781
:103D00001AFE0020FEF7A6FD4FF4C0610120FEF769
:103D100074FD4FF480710120FEF7D4FDD8210120FD
:103D2000FEF7DDFD09210120FEF7FCFD2021012029
:103D3000FEF770FD0120434908600020BDE8024005
:103D4000FEF715BD4248807A002802D005203D4983
:103D50000860704704203B4908607047704770470F
:103D600038B50021344A13681C78062811D104F0B4
:103D70007F05012D0DD15D79002D0AD1987822287B
:103D800002D10FF271010CE021280AD10FF26D016E
:103D900007E004F07F04212C03D1032801D10FF2A6
:103DA0008501080001D1022032BD9961002012680E
:103DB00050828847002032BD1F490968097801F008
:103DC0007F01212902D10B2800D124E00220704775
:103DD0002049FEF73BBA2049FEF738BA1649096870
:103DE000C978052901DB002070471C4A02EBC1019C
:103DF000FEF72CBA1A49FEF729BA00001949FEF756
:103E000025BA002901D002207047002801D00220E5
:103E100070470020704708480068C0781249086061
:103E200000207047002805D1012003490968088255
:103E3000002070470C487047C0020020405C0040E2
:103E400000030020F40200205C4000083C01002038
:103E5000A40200202C020020340200209001002047
:103E60003C02002044020020F002002034480121DE
:103E700001600021016041604FF4E051314A11803E
:103E80000160002070472E48016841F0080189B2A6
:103E90000160016841F0040189B20160FFF7E5BCEF
:103EA00010B5274C20684FF6FB7108402060FFF7E3
:103EB000E0FC4FF43F40206010BD000010B5224CE4
:103EC000072800D020702078052836D8DFE800F0D9
:103ED00003080D121B26FFF7E3FF0620207010BD1C
:103EE000FFF7DEFF0420207010BD02206070032069
:103EF000207010BD6078401E6070607800281ED170
:103F00000420207010BD0E48016841F0100189B2F4
:103F10000160052020700A20607010BD6078401E8E
:103F20006070607800280AD1054801684FF6EF728A
:103F3000114001600620207010BD0620207010BDC9
:103F4000405C004000030020F802002080B53948A2
:103F5000016841F0010101604168374A1140416048
:103F60000168364A11400160016821F48021016036
:103F7000416821F4FE0141604FF41F01816000F0AF
:103F800005F84FF000602E49086001BD00BF82B007
:103F90000020019000902748016841F480310160C1
:103FA000016801F4003100910199491C01910099C7
:103FB000002903D10199B1F5A06FF1D10168490C35
:103FC00001F0010100910099012930D11D490A68D1
:103FD00042F010020A600A68920892000A600A68B9
:103FE00042F002020A6041684160416841604168F4
:103FF00041F480614160416821F47C114160416875
:1040000041F4E8114160016841F08071016001688C
:104010008901FCD54168890889004160416841F007
:1040200002014160416801F00C010829FAD102B097
:1040300070470000001002400000FFF8FFFFF6FE8E
:1040400008ED00E0002002401201000200000040E4
:104050008304012300020102030100000902290078
:10406000010100E0320904000002030101000921FE
:1040700000010001227500070581030900200705E2
:10408000010309002000000005010906A1018501C6
:10409000050719E029E7150025019508750181023A
:1040A0009501750881039506750825FF1900296596
:1040B0008100250195027501050819012902910267
:1040C000950175069103C005010902A10185020948
:1040D00001A10005091901290315002501950375A2
:1040E0000181029501750581010501093009310938
:1040F000381581257F750895038106C0C000000032
:104100000403090410035A0065007000680052009F
:104110006100790016035000690042006F007200D0
:104120002D005A00650072006F000000816807E0F2
:1041300002681168536889185B18C360083202600E
:10414000C2689142F4D04A1C8260087870472DE919
:10415000FF4D00F10801009100270268520801EBB1
:10416000C2010191B84600210291039101684908FA
:1041700000EBC101406800F0010501F108044008AE
:1041800004EBC00631E000A8FFF7D0FF4FFA80FA39
:104190000AE0009801680818009902904968081818
:1041A0000390009808300090029803998842F0D05C
:1041B000401C029010F801BD47450CD1B44208BF25
:1041C00000F01DF8276805B14F44606800EB070850
:1041D00008344745F2D007F801BBBAF1000F0AD501
:1041E0001AF1010AE8D14745CDD1B442CBD13046CE
:1041F00004B0BDE8F08DBAF1010AD5D5F3E701208E
:1042000000F000B880B5C046C046024A1100182030
:10421000ABBEFBE72600020070B52A4C2A4D286889
:1042200060802A4E608831880840400505D54FF6E9
:10423000FF30286026484068804760883188084001
:10424000800402D54DF6FF702860608831880840F0
:10425000C00405D54EF6FF7028600020FFF72EFE43
:1042600060883188084000050CD51A48007800287D
:1042700002D0FFF708FE02E00220FFF71FFE4FF218
:10428000FF702860608831880840800505D54FF6AA
:10429000FF5028602078401C2070608831880840DA
:1042A000C00505D54FF6FF6028600720FFF706FE22
:1042B000608831880840000403D5BDE87040FFF7EE
:1042C000F5BB70BDEC020020445C00400003002000
:1042D0003C010020500200207047FEE7FEE7FEE7A9
:1042E000FEE7704770477047704701214FF08040EC
:1042F000FEF72DBD012000F01BB810B5084C2021A1
:104300002046FFF786FB012809D12046FFF77DFBF9
:1043100040F225512046BDE81040FFF781BB10BD9B
:1043200000380140FFF778BF4FF48020FFF7B5BB9E
:1043300007498A8802400988014206D01046C0B267
:10434000401E8041C043C00F7047002070470000EE
:104350000028004010B5074979441831064C7C44C8
:10436000163404E00A68081D511888470146A14226
:10437000F8D110BD0800000030000000DFCEFFFFC4
:10438000B00000005402002000000000C3FDFFFF49
:1043900002000000020000004C0100003C0100008F
:1043A000000000205102000000F00BF8002801D0AE
:1043B000FFF7D0FF0020C046C046FFF781F800F0AD
:1043C00002F80120704700F001B8000007463846A7
:1043D000FFF718FFFBE738B504460D46284600F006
:1043E00005F8A84218BF0024204632BD0149FFF756
:1043F00079B900BFFC000020014880470148004710
:104400004D3F000809440008C046C046C046C046AB
:10441000FFF7CAFFFFF760BFFFF75FBFFFF75EBFA1
:10442000FFF75DBFFFF75CBFFFF75BBFFFF75ABF4A
:10443000FFF759BFFEF778BFFFF7FEBFFFF7FEBFDC
:10444000FFF7FEBFFFF756BFFFF7FEBFFFF7FEBF48
:10445000FFF7FEBFFFF7FEBFFFF7FEBFFFF7FEBF90
:10446000FFF7FEBFFFF7FEBFFFF7FEBFFFF7FEBF80
:10447000FFF7FEBFFFF7FEBFFFF7FEBFFFF7FEBF70
:10448000FFF7FEBFFFF7FEBFFFF74CBFFFF7FEBF12
:10449000FFF7FEBFFFF7FEBFFFF7FEBFFFF7FEBF50
:1044A000FFF7FEBFFFF7FEBFFFF71FBFFFF7FEBF1F
:1044B000FFF7FEBFFFF7FEBFFFF7FEBFFFF7FEBF30
:1044C000FFF7FEBFFFF710BFFFF7FEBFFFF715BFF7
:1044D000FFF7FEBFFFF7FEBFFFF7FEBFFFF7FEBF10
:1044E000FFF722BFE400F8FFDC00FAFF8100D100F3
:1044F0001F0204010154020020A402002054020003
:104500002054020020540200203901002020010024
:1045100020E000278D3C0008B33C00085D3D00080A
:104520005F3D0008613D0008B93D0008033E0008FA
:10453000D13D0008D73D0008DD3D0008FC000040EB
:10454000FD0028E9270008453D0008E9270008E9A3
:10455000270008E9270008E9270008E9270008E9FB
:10456000270008553D00080041000804FD00040430
:1045700041000810FD00041441000816FD0004105D
:1045800002002010FD0037E9270008E9270008E9AC
:10459000270008E9270008E9270008E9270008E9BB
:1045A000270008E9270008E9270008E9270008E9AB
:1045B000270008E9270008E9270008E9270008FC88
:1045C000000F0102030401020304060708090204A4
:1045D0000608F8001A010203040607080900A24AA7
:1045E0000410033200330033003300330033003152
:1045F000FB000014FD0000C8FD0004484000081244
:10460000FD00045C40000829FD0004884000087596
:10461000FD00046E40000809FD00040201000001D5
:0400000508004409A2
:00000001FF
